:100000000C942E000C944B000C944B000C944B0061
:100010000C944B000C944B000C944B000C948F00F0
:100020000C944B000C944B000C944B000C944B0024
:100030000C944B000C9489000C944B000C944B00D6
:100040000C944B000C944B000C944B000C944B0004
:100050000C944B000C944B000C944B0011241FBECD
:10006000CFEFD8E0DEBFCDBF11E0A0E0B1E0ECE320
:10007000F2E002C005900D92A230B107D9F721E05D
:10008000A2E0B1E001C01D92A630B207E1F70E94E4
:10009000E8000C941C010C94000010928000E1E830
:1000A000F0E088E0808382E080936F00808181604F
:1000B000808308959093C5008093C4001092C0007F
:1000C00080E18093C1008EE08093C2000895109279
:1000D000C5008BE08093C4001092C00080E1809343
:1000E000C1008EE08093C20008958091C00087FF18
:1000F000FCCF8091C60008958091C00087FFFCCF9F
:100100008091C600853709F0089581E0809303014E
:1001100008958F9381E0809303018F9118950F923A
:100120000FB60F921F9211242F938F939F9380915C
:10013000030187958827879588B9809103018115E8
:10014000A9F0809104019091050181309105B9F0E9
:1001500082309105E9F0892B51F4809102018115DB
:1001600061F18FEF82B91092020101C012B89F9124
:100170008F912F911F900F900FBE0F901895809127
:1001800002018115F9F08AEA82B910920201EFCFDB
:100190002091020181E0820F8093020181E090E0D2
:1001A000022E01C0880F0A94EAF782B980910201F9
:1001B0008830E9F610920201DACF12B881E080931C
:1001C0000201D5CF85E582B981E080930201CFCFCE
:1001D0008FEF81B920E827B91DB880E185BF97E08E
:1001E00090936B008DBB93E0909369001092800018
:1001F00098E09093810092E090936F00909181003D
:100200009160909381001092C5009BE09093C40090
:100210001092C0008093C1008EE08093C2002FBF77
:1002200021E09091C6008091C00087FFFCCF9537F8
:0C023000D1F720930301F5CFF894FFCF25
:02023C000100BF
:00000001FF
