:100000000C942E000C944B000C944D000C944B005F
:100010000C944B000C944B000C944B000C944B0034
:100020000C944B000C944B000C944B000C944B0024
:100030000C944B000C944B000C944B000C944B0014
:100040000C944B000C944B000C944B000C944B0004
:100050000C944B000C944B000C944B0011241FBECD
:10006000CFEFD8E0DEBFCDBF11E0A0E0B1E0E2EE1F
:10007000F1E002C005900D92A230B107D9F721E05E
:10008000A2E0B1E001C01D92A630B207E1F70E94E4
:1000900086000C94EF000C9400001F921FB61F9274
:1000A00011248F939F93F894619915C08091040156
:1000B000909105018230910531F1019690930501EF
:1000C000809304011092020178949F918F911F9068
:1000D0001FBE1F90189560990BC08091030191E09D
:1000E00089278093030187958827879588B9ECCF66
:1000F0006299EACF809100018F5F8B3008F081E038
:1001000080930001E1CF80E090E0D8CF8FEF81B9FC
:1001100080E887B91DB880E185BF97E090936B00B8
:100120008DBB83E080936900789475E541E06AEACD
:1001300021E030E05FEF8091030187958827879564
:1001400088B980910301811521F18091040190917A
:1001500005018130910599F182309105E1F0892BFB
:1001600039F480910201811591F152B91092020186
:10017000809100018115F9F280E0EFE1FEE4319712
:10018000F1F700C000008F5F909100018917A8F37C
:10019000D2CF12B8EDCF8091020191E0980F9093E9
:1001A0000201F90102C0EE0FFF1F8A95E2F7E2B9E2
:1001B000809102018830E1F610920201D9CF80913E
:1001C0000201811541F062B910920201D1CF12B83B
:1001D00040930201CDCF72B940930201C9CFF89488
:0201E000FFCF4F
:0201E20001001A
:00000001FF
