:100000000C942E000C944B000C944D000C944B005F
:100010000C944B000C944B000C944B000C944B0034
:100020000C944B000C94B0000C944B000C944B00BF
:100030000C944B000C944B000C944B000C944B0014
:100040000C944B000C944B000C944B000C944B0004
:100050000C944B000C944B000C944B0011241FBECD
:10006000CFEFD8E0DEBFCDBF11E0A0E0B1E0E6E524
:10007000F2E002C005900D92A230B107D9F721E05D
:10008000A2E0B1E001C01D92A630B207E1F70E94E4
:1000900009010C9429010C9400000F920FB60F92E5
:1000A0001F9211242F933F934F935F938F939F93AE
:1000B000F89461991AC080910401909105018230F1
:1000C0009105D1F10196909305018093040110925E
:1000D000020178949F918F915F914F913F912F9161
:1000E0001F900F900FBE0F9018958CB181708111E9
:1000F0000BC08091030191E08927809303018795CC
:100100008827879588B9E5CF6299E3CF9091000160
:100110009F5F28EE33E09B3040F448EE53E0949F1D
:100120009001959F300D1124892F80930001309309
:10013000890020938800CDCF80E090E0C4CF10925A
:10014000800081E080936F00E1E8F0E080818360CF
:10015000808388EE93E090938900809388000895CF
:100160000F920FB60F921F9211242F938F939F938C
:100170008091030187958827879588B9809103012D
:100180008115A9F0809104019091050181309105BC
:10019000B9F082309105E9F0892B51F48091020188
:1001A000811561F18FEF82B91092020101C012B87E
:1001B0009F918F912F911F900F900FBE0F901895C8
:1001C000809102018115F9F08AEA82B91092020148
:1001D000EFCF2091020181E0820F8093020181E044
:1001E00090E0022E01C0880F0A94EAF782B980914C
:1001F00002018830E9F610920201DACF12B881E0EC
:1002000080930201D5CF85E582B981E08093020118
:10021000CFCF8FEF81B980E887B91DB880E185BF66
:1002200097E090936B008DBB83E080936900109200
:10023000800081E080936F008091810083608093D3
:10024000810088EE93E090938900809388007894F1
:06025000FFCFF894FFCF80
:020256000100A5
:00000001FF
